{
  "contractName": "FarmProduce",
  "abi": [
    {
      "anonymous": false,
      "inputs": [
        {
          "indexed": false,
          "internalType": "uint256",
          "name": "id",
          "type": "uint256"
        }
      ],
      "name": "ProduceAdded",
      "type": "event"
    },
    {
      "inputs": [],
      "name": "produceCount",
      "outputs": [
        {
          "internalType": "uint256",
          "name": "",
          "type": "uint256"
        }
      ],
      "stateMutability": "view",
      "type": "function",
      "constant": true
    },
    {
      "inputs": [
        {
          "internalType": "uint256",
          "name": "",
          "type": "uint256"
        }
      ],
      "name": "produces",
      "outputs": [
        {
          "internalType": "string",
          "name": "farmerName",
          "type": "string"
        },
        {
          "internalType": "string",
          "name": "cropName",
          "type": "string"
        },
        {
          "internalType": "uint256",
          "name": "quantity",
          "type": "uint256"
        },
        {
          "internalType": "string",
          "name": "location",
          "type": "string"
        }
      ],
      "stateMutability": "view",
      "type": "function",
      "constant": true
    },
    {
      "inputs": [
        {
          "internalType": "string",
          "name": "_farmerName",
          "type": "string"
        },
        {
          "internalType": "string",
          "name": "_cropName",
          "type": "string"
        },
        {
          "internalType": "uint256",
          "name": "_quantity",
          "type": "uint256"
        },
        {
          "internalType": "string",
          "name": "_location",
          "type": "string"
        }
      ],
      "name": "addProduce",
      "outputs": [],
      "stateMutability": "nonpayable",
      "type": "function"
    },
    {
      "inputs": [
        {
          "internalType": "uint256",
          "name": "_id",
          "type": "uint256"
        }
      ],
      "name": "getProduce",
      "outputs": [
        {
          "internalType": "string",
          "name": "",
          "type": "string"
        },
        {
          "internalType": "string",
          "name": "",
          "type": "string"
        },
        {
          "internalType": "uint256",
          "name": "",
          "type": "uint256"
        },
        {
          "internalType": "string",
          "name": "",
          "type": "string"
        }
      ],
      "stateMutability": "view",
      "type": "function",
      "constant": true
    },
    {
      "inputs": [],
      "name": "getAllProduces",
      "outputs": [
        {
          "internalType": "string[]",
          "name": "",
          "type": "string[]"
        },
        {
          "internalType": "string[]",
          "name": "",
          "type": "string[]"
        },
        {
          "internalType": "uint256[]",
          "name": "",
          "type": "uint256[]"
        },
        {
          "internalType": "string[]",
          "name": "",
          "type": "string[]"
        }
      ],
      "stateMutability": "view",
      "type": "function",
      "constant": true
    }
  ],
  "bytecode": "0x6080604052600060015534801561001557600080fd5b50611328806100256000396000f3fe608060405234801561001057600080fd5b50600436106100575760003560e01c8063179c57641461005c578063389b80661461007857806356cd8306146100ab578063769428d4146100de578063b4376899146100fc575b600080fd5b61007660048036038101906100719190610ca9565b61011d565b005b610092600480360381019061008d9190610d54565b61020d565b6040516100a29493929190610fad565b60405180910390f35b6100c560048036038101906100c09190610d54565b610461565b6040516100d59493929190610fad565b60405180910390f35b6100e6610629565b6040516100f39190611027565b60405180910390f35b61010461062f565b6040516101149493929190610f4c565b60405180910390f35b60016000815480929190610130906111f4565b919050555060405180608001604052808581526020018481526020018381526020018281525060008060015481526020019081526020016000206000820151816000019080519060200190610186929190610b89565b5060208201518160010190805190602001906101a3929190610b89565b506040820151816002015560608201518160030190805190602001906101ca929190610b89565b509050507f5882c572992e3a2fac18bc8e1892156aba9e18a08ffc96111e476402ef0529696001546040516101ff9190611027565b60405180910390a150505050565b606080600060606000806000878152602001908152602001600020604051806080016040529081600082018054610243906111c2565b80601f016020809104026020016040519081016040528092919081815260200182805461026f906111c2565b80156102bc5780601f10610291576101008083540402835291602001916102bc565b820191906000526020600020905b81548152906001019060200180831161029f57829003601f168201915b505050505081526020016001820180546102d5906111c2565b80601f0160208091040260200160405190810160405280929190818152602001828054610301906111c2565b801561034e5780601f106103235761010080835404028352916020019161034e565b820191906000526020600020905b81548152906001019060200180831161033157829003601f168201915b5050505050815260200160028201548152602001600382018054610371906111c2565b80601f016020809104026020016040519081016040528092919081815260200182805461039d906111c2565b80156103ea5780601f106103bf576101008083540402835291602001916103ea565b820191906000526020600020905b8154815290600101906020018083116103cd57829003601f168201915b505050505081525050905060008160000151511161043d576040517f08c379a000000000000000000000000000000000000000000000000000000000815260040161043490611007565b60405180910390fd5b80600001518160200151826040015183606001519450945094509450509193509193565b6000602052806000526040600020600091509050806000018054610484906111c2565b80601f01602080910402602001604051908101604052809291908181526020018280546104b0906111c2565b80156104fd5780601f106104d2576101008083540402835291602001916104fd565b820191906000526020600020905b8154815290600101906020018083116104e057829003601f168201915b505050505090806001018054610512906111c2565b80601f016020809104026020016040519081016040528092919081815260200182805461053e906111c2565b801561058b5780601f106105605761010080835404028352916020019161058b565b820191906000526020600020905b81548152906001019060200180831161056e57829003601f168201915b5050505050908060020154908060030180546105a6906111c2565b80601f01602080910402602001604051908101604052809291908181526020018280546105d2906111c2565b801561061f5780601f106105f45761010080835404028352916020019161061f565b820191906000526020600020905b81548152906001019060200180831161060257829003601f168201915b5050505050905084565b60015481565b606080606080600060015467ffffffffffffffff811115610679577f4e487b7100000000000000000000000000000000000000000000000000000000600052604160045260246000fd5b6040519080825280602002602001820160405280156106ac57816020015b60608152602001906001900390816106975790505b509050600060015467ffffffffffffffff8111156106f3577f4e487b7100000000000000000000000000000000000000000000000000000000600052604160045260246000fd5b60405190808252806020026020018201604052801561072657816020015b60608152602001906001900390816107115790505b509050600060015467ffffffffffffffff81111561076d577f4e487b7100000000000000000000000000000000000000000000000000000000600052604160045260246000fd5b60405190808252806020026020018201604052801561079b5781602001602082028036833780820191505090505b509050600060015467ffffffffffffffff8111156107e2577f4e487b7100000000000000000000000000000000000000000000000000000000600052604160045260246000fd5b60405190808252806020026020018201604052801561081557816020015b60608152602001906001900390816108005790505b5090506000600190505b6001548111610b72576000806000838152602001908152602001600020604051806080016040529081600082018054610857906111c2565b80601f0160208091040260200160405190810160405280929190818152602001828054610883906111c2565b80156108d05780601f106108a5576101008083540402835291602001916108d0565b820191906000526020600020905b8154815290600101906020018083116108b357829003601f168201915b505050505081526020016001820180546108e9906111c2565b80601f0160208091040260200160405190810160405280929190818152602001828054610915906111c2565b80156109625780601f1061093757610100808354040283529160200191610962565b820191906000526020600020905b81548152906001019060200180831161094557829003601f168201915b5050505050815260200160028201548152602001600382018054610985906111c2565b80601f01602080910402602001604051908101604052809291908181526020018280546109b1906111c2565b80156109fe5780601f106109d3576101008083540402835291602001916109fe565b820191906000526020600020905b8154815290600101906020018083116109e157829003601f168201915b5050505050815250509050806000015186600184610a1c9190611142565b81518110610a53577f4e487b7100000000000000000000000000000000000000000000000000000000600052603260045260246000fd5b6020026020010181905250806020015185600184610a719190611142565b81518110610aa8577f4e487b7100000000000000000000000000000000000000000000000000000000600052603260045260246000fd5b6020026020010181905250806040015184600184610ac69190611142565b81518110610afd577f4e487b7100000000000000000000000000000000000000000000000000000000600052603260045260246000fd5b602002602001018181525050806060015183600184610b1c9190611142565b81518110610b53577f4e487b7100000000000000000000000000000000000000000000000000000000600052603260045260246000fd5b6020026020010181905250508080610b6a906111f4565b91505061081f565b508383838397509750975097505050505090919293565b828054610b95906111c2565b90600052602060002090601f016020900481019282610bb75760008555610bfe565b82601f10610bd057805160ff1916838001178555610bfe565b82800160010185558215610bfe579182015b82811115610bfd578251825591602001919060010190610be2565b5b509050610c0b9190610c0f565b5090565b5b80821115610c28576000816000905550600101610c10565b5090565b6000610c3f610c3a84611073565b611042565b905082815260208101848484011115610c5757600080fd5b610c62848285611180565b509392505050565b600082601f830112610c7b57600080fd5b8135610c8b848260208601610c2c565b91505092915050565b600081359050610ca3816112db565b92915050565b60008060008060808587031215610cbf57600080fd5b600085013567ffffffffffffffff811115610cd957600080fd5b610ce587828801610c6a565b945050602085013567ffffffffffffffff811115610d0257600080fd5b610d0e87828801610c6a565b9350506040610d1f87828801610c94565b925050606085013567ffffffffffffffff811115610d3c57600080fd5b610d4887828801610c6a565b91505092959194509250565b600060208284031215610d6657600080fd5b6000610d7484828501610c94565b91505092915050565b6000610d898383610e7c565b905092915050565b6000610d9d8383610f2e565b60208301905092915050565b6000610db4826110c3565b610dbe81856110fe565b935083602082028501610dd0856110a3565b8060005b85811015610e0c5784840389528151610ded8582610d7d565b9450610df8836110e4565b925060208a01995050600181019050610dd4565b50829750879550505050505092915050565b6000610e29826110ce565b610e33818561110f565b9350610e3e836110b3565b8060005b83811015610e6f578151610e568882610d91565b9750610e61836110f1565b925050600181019050610e42565b5085935050505092915050565b6000610e87826110d9565b610e918185611120565b9350610ea181856020860161118f565b610eaa816112ca565b840191505092915050565b6000610ec0826110d9565b610eca8185611131565b9350610eda81856020860161118f565b610ee3816112ca565b840191505092915050565b6000610efb601683611131565b91507f50726f6475636520646f6573206e6f74206578697374000000000000000000006000830152602082019050919050565b610f3781611176565b82525050565b610f4681611176565b82525050565b60006080820190508181036000830152610f668187610da9565b90508181036020830152610f7a8186610da9565b90508181036040830152610f8e8185610e1e565b90508181036060830152610fa28184610da9565b905095945050505050565b60006080820190508181036000830152610fc78187610eb5565b90508181036020830152610fdb8186610eb5565b9050610fea6040830185610f3d565b8181036060830152610ffc8184610eb5565b905095945050505050565b6000602082019050818103600083015261102081610eee565b9050919050565b600060208201905061103c6000830184610f3d565b92915050565b6000604051905081810181811067ffffffffffffffff821117156110695761106861129b565b5b8060405250919050565b600067ffffffffffffffff82111561108e5761108d61129b565b5b601f19601f8301169050602081019050919050565b6000819050602082019050919050565b6000819050602082019050919050565b600081519050919050565b600081519050919050565b600081519050919050565b6000602082019050919050565b6000602082019050919050565b600082825260208201905092915050565b600082825260208201905092915050565b600082825260208201905092915050565b600082825260208201905092915050565b600061114d82611176565b915061115883611176565b92508282101561116b5761116a61123d565b5b828203905092915050565b6000819050919050565b82818337600083830152505050565b60005b838110156111ad578082015181840152602081019050611192565b838111156111bc576000848401525b50505050565b600060028204905060018216806111da57607f821691505b602082108114156111ee576111ed61126c565b5b50919050565b60006111ff82611176565b91507fffffffffffffffffffffffffffffffffffffffffffffffffffffffffffffffff8214156112325761123161123d565b5b600182019050919050565b7f4e487b7100000000000000000000000000000000000000000000000000000000600052601160045260246000fd5b7f4e487b7100000000000000000000000000000000000000000000000000000000600052602260045260246000fd5b7f4e487b7100000000000000000000000000000000000000000000000000000000600052604160045260246000fd5b6000601f19601f8301169050919050565b6112e481611176565b81146112ef57600080fd5b5056fea26469706673582212208c2b6898b4488e477c01687f14c73c787a1baa8d56299d6c602b0f75e92c6b9364736f6c63430008000033",
  "immutableReferences": {},
  "source": "// SPDX-License-Identifier: UNLICENSED\r\npragma solidity ^0.8.0;\r\n\r\ncontract FarmProduce {\r\n    struct Produce {\r\n        string farmerName;\r\n        string cropName;\r\n        uint256 quantity; // Quantity in kg\r\n        string location;\r\n    }\r\n\r\n    mapping(uint256 => Produce) public produces; // Mapping ID to produce details\r\n    uint256 public produceCount = 0; // Counter for unique IDs\r\n\r\n    event ProduceAdded(uint256 id);\r\n\r\n    // Add produce details\r\n    function addProduce(\r\n        string memory _farmerName,\r\n        string memory _cropName,\r\n        uint256 _quantity,\r\n        string memory _location\r\n    ) public {\r\n        produceCount++;\r\n        produces[produceCount] = Produce(_farmerName, _cropName, _quantity, _location);\r\n        emit ProduceAdded(produceCount);\r\n    }\r\n\r\n    // Get produce details by ID\r\n    function getProduce(uint256 _id)\r\n        public\r\n        view\r\n        returns (\r\n            string memory,\r\n            string memory,\r\n            uint256,\r\n            string memory\r\n        )\r\n    {\r\n        Produce memory produce = produces[_id];\r\n        require(bytes(produce.farmerName).length > 0, \"Produce does not exist\");\r\n        return (produce.farmerName, produce.cropName, produce.quantity, produce.location);\r\n    }\r\n\r\n    // Get all produce details\r\n    function getAllProduces() public view returns (string[] memory, string[] memory, uint256[] memory, string[] memory) {\r\n        string[] memory farmerNames = new string[](produceCount);\r\n        string[] memory cropNames = new string[](produceCount);\r\n        uint256[] memory quantities = new uint256[](produceCount);\r\n        string[] memory locations = new string[](produceCount);\r\n\r\n        for (uint256 i = 1; i <= produceCount; i++) {\r\n            Produce memory produce = produces[i];\r\n            farmerNames[i - 1] = produce.farmerName;\r\n            cropNames[i - 1] = produce.cropName;\r\n            quantities[i - 1] = produce.quantity;\r\n            locations[i - 1] = produce.location;\r\n        }\r\n\r\n        return (farmerNames, cropNames, quantities, locations);\r\n    }\r\n}",
  "sourcePath": "C:\\Users\\prade\\Downloads\\iit-mp\\contracts\\FarmProduce.sol",
  "compiler": {
    "name": "solc",
    "version": "0.8.0+commit.c7dfd78e.Emscripten.clang"
  },
  "schemaVersion": "3.4.16",
  "updatedAt": "2025-03-27T17:06:03.282Z",
  "networkType": "ethereum",
  "devdoc": {
    "kind": "dev",
    "methods": {},
    "version": 1
  },
  "userdoc": {
    "kind": "user",
    "methods": {},
    "version": 1
  }
}