{
  "contractName": "UserStorage",
  "abi": [
    {
      "anonymous": false,
      "inputs": [
        {
          "indexed": false,
          "internalType": "string",
          "name": "email",
          "type": "string"
        }
      ],
      "name": "UserAdded",
      "type": "event"
    },
    {
      "inputs": [
        {
          "internalType": "string",
          "name": "",
          "type": "string"
        }
      ],
      "name": "users",
      "outputs": [
        {
          "internalType": "string",
          "name": "name",
          "type": "string"
        },
        {
          "internalType": "string",
          "name": "email",
          "type": "string"
        },
        {
          "internalType": "string",
          "name": "password",
          "type": "string"
        }
      ],
      "stateMutability": "view",
      "type": "function",
      "constant": true
    },
    {
      "inputs": [
        {
          "internalType": "string",
          "name": "_name",
          "type": "string"
        },
        {
          "internalType": "string",
          "name": "_email",
          "type": "string"
        },
        {
          "internalType": "string",
          "name": "_password",
          "type": "string"
        }
      ],
      "name": "addUser",
      "outputs": [],
      "stateMutability": "nonpayable",
      "type": "function"
    },
    {
      "inputs": [
        {
          "internalType": "string",
          "name": "_email",
          "type": "string"
        }
      ],
      "name": "getUser",
      "outputs": [
        {
          "internalType": "string",
          "name": "",
          "type": "string"
        },
        {
          "internalType": "string",
          "name": "",
          "type": "string"
        },
        {
          "internalType": "string",
          "name": "",
          "type": "string"
        }
      ],
      "stateMutability": "view",
      "type": "function",
      "constant": true
    }
  ],
  "bytecode": "0x608060405234801561001057600080fd5b50610b5b806100206000396000f3fe608060405234801561001057600080fd5b50600436106100415760003560e01c806331feb67114610046578063689e1c031461007857806395c5fed4146100aa575b600080fd5b610060600480360381019061005b9190610733565b6100c6565b60405161006f9392919061092e565b60405180910390f35b610092600480360381019061008d9190610733565b610312565b6040516100a19392919061092e565b60405180910390f35b6100c460048036038101906100bf9190610774565b6104ea565b005b6060806060600080856040516100dc91906108f5565b908152602001604051809103902060405180606001604052908160008201805461010590610a84565b80601f016020809104026020016040519081016040528092919081815260200182805461013190610a84565b801561017e5780601f106101535761010080835404028352916020019161017e565b820191906000526020600020905b81548152906001019060200180831161016157829003601f168201915b5050505050815260200160018201805461019790610a84565b80601f01602080910402602001604051908101604052809291908181526020018280546101c390610a84565b80156102105780601f106101e557610100808354040283529160200191610210565b820191906000526020600020905b8154815290600101906020018083116101f357829003601f168201915b5050505050815260200160028201805461022990610a84565b80601f016020809104026020016040519081016040528092919081815260200182805461025590610a84565b80156102a25780601f10610277576101008083540402835291602001916102a2565b820191906000526020600020905b81548152906001019060200180831161028557829003601f168201915b50505050508152505090506000816020015151116102f5576040517f08c379a00000000000000000000000000000000000000000000000000000000081526004016102ec9061099a565b60405180910390fd5b806000015181602001518260400151935093509350509193909250565b60008180516020810182018051848252602083016020850120818352809550505050505060009150905080600001805461034b90610a84565b80601f016020809104026020016040519081016040528092919081815260200182805461037790610a84565b80156103c45780601f10610399576101008083540402835291602001916103c4565b820191906000526020600020905b8154815290600101906020018083116103a757829003601f168201915b5050505050908060010180546103d990610a84565b80601f016020809104026020016040519081016040528092919081815260200182805461040590610a84565b80156104525780601f1061042757610100808354040283529160200191610452565b820191906000526020600020905b81548152906001019060200180831161043557829003601f168201915b50505050509080600201805461046790610a84565b80601f016020809104026020016040519081016040528092919081815260200182805461049390610a84565b80156104e05780601f106104b5576101008083540402835291602001916104e0565b820191906000526020600020905b8154815290600101906020018083116104c357829003601f168201915b5050505050905083565b600080836040516104fb91906108f5565b9081526020016040518091039020600101805461051790610a84565b905014610559576040517f08c379a00000000000000000000000000000000000000000000000000000000081526004016105509061097a565b60405180910390fd5b60405180606001604052808481526020018381526020018281525060008360405161058491906108f5565b908152602001604051809103902060008201518160000190805190602001906105ae929190610628565b5060208201518160010190805190602001906105cb929190610628565b5060408201518160020190805190602001906105e8929190610628565b509050507fdb8f9fd4bfba5ae615ae02e8b4d281b887225fd3d34a5ac7b8d78df768bb63e78260405161061b919061090c565b60405180910390a1505050565b82805461063490610a84565b90600052602060002090601f016020900481019282610656576000855561069d565b82601f1061066f57805160ff191683800117855561069d565b8280016001018555821561069d579182015b8281111561069c578251825591602001919060010190610681565b5b5090506106aa91906106ae565b5090565b5b808211156106c75760008160009055506001016106af565b5090565b60006106de6106d9846109eb565b6109ba565b9050828152602081018484840111156106f657600080fd5b610701848285610a42565b509392505050565b600082601f83011261071a57600080fd5b813561072a8482602086016106cb565b91505092915050565b60006020828403121561074557600080fd5b600082013567ffffffffffffffff81111561075f57600080fd5b61076b84828501610709565b91505092915050565b60008060006060848603121561078957600080fd5b600084013567ffffffffffffffff8111156107a357600080fd5b6107af86828701610709565b935050602084013567ffffffffffffffff8111156107cc57600080fd5b6107d886828701610709565b925050604084013567ffffffffffffffff8111156107f557600080fd5b61080186828701610709565b9150509250925092565b600061081682610a1b565b6108208185610a26565b9350610830818560208601610a51565b61083981610b14565b840191505092915050565b600061084f82610a1b565b6108598185610a37565b9350610869818560208601610a51565b80840191505092915050565b6000610882601383610a26565b91507f5573657220616c726561647920657869737473000000000000000000000000006000830152602082019050919050565b60006108c2601383610a26565b91507f5573657220646f6573206e6f74206578697374000000000000000000000000006000830152602082019050919050565b60006109018284610844565b915081905092915050565b60006020820190508181036000830152610926818461080b565b905092915050565b60006060820190508181036000830152610948818661080b565b9050818103602083015261095c818561080b565b90508181036040830152610970818461080b565b9050949350505050565b6000602082019050818103600083015261099381610875565b9050919050565b600060208201905081810360008301526109b3816108b5565b9050919050565b6000604051905081810181811067ffffffffffffffff821117156109e1576109e0610ae5565b5b8060405250919050565b600067ffffffffffffffff821115610a0657610a05610ae5565b5b601f19601f8301169050602081019050919050565b600081519050919050565b600082825260208201905092915050565b600081905092915050565b82818337600083830152505050565b60005b83811015610a6f578082015181840152602081019050610a54565b83811115610a7e576000848401525b50505050565b60006002820490506001821680610a9c57607f821691505b60208210811415610ab057610aaf610ab6565b5b50919050565b7f4e487b7100000000000000000000000000000000000000000000000000000000600052602260045260246000fd5b7f4e487b7100000000000000000000000000000000000000000000000000000000600052604160045260246000fd5b6000601f19601f830116905091905056fea2646970667358221220cdfc7bec1f62ecbbdd056cc443a5ad65d43b1b9856dff84741267d8dca62bc0f64736f6c63430008000033",
  "immutableReferences": {},
  "source": "// SPDX-License-Identifier: UNLICENSED\r\npragma solidity ^0.8.0;\r\n\r\ncontract UserStorage {\r\n    struct User {\r\n        string name;\r\n        string email;\r\n        string password;\r\n    }\r\n\r\n    mapping(string => User) public users;\r\n\r\n    event UserAdded(string email);\r\n\r\n    function addUser(string memory _name, string memory _email, string memory _password) public {\r\n        require(bytes(users[_email].email).length == 0, \"User already exists\");\r\n        users[_email] = User(_name, _email, _password);\r\n        emit UserAdded(_email);\r\n    }\r\n\r\n    function getUser(string memory _email) public view returns (string memory, string memory, string memory) {\r\n        User memory user = users[_email];\r\n        require(bytes(user.email).length > 0, \"User does not exist\");\r\n        return (user.name, user.email, user.password);\r\n    }\r\n}",
  "sourcePath": "C:\\Users\\prade\\Downloads\\iit-mp\\contracts\\UserStorage.sol",
  "compiler": {
    "name": "solc",
    "version": "0.8.0+commit.c7dfd78e.Emscripten.clang"
  },
  "schemaVersion": "3.4.16",
  "updatedAt": "2025-03-27T16:53:44.297Z",
  "networkType": "ethereum",
  "devdoc": {
    "kind": "dev",
    "methods": {},
    "version": 1
  },
  "userdoc": {
    "kind": "user",
    "methods": {},
    "version": 1
  }
}